:020000022000DC
:1060000000000420756302005D6302005F6302000C
:106010006163020063630200656302000000000028
:1060200000000000000000000000000067630200A4
:1060300069630200000000006B6302006D630200F0
:10604000A9B102006F6302004DB002006F6302004D
:106050006F6302006F630200A1AE02006F63020073
:106060006F6302006F6302006F6302006F630200E0
:106070006F6302006F6302006F6302006F630200D0
:106080006F630200057F02006F6302006F6302000E
:10609000A17F02006F6302009D2D03006F63020069
:1060A0006F6302006F6302006F6302006F630200A0
:1060B0006F6302006F630200000000000000000038
:1060C0006F6302006F6302006F6302006F63020080
:1060D0006F6302006F6302006F630200F5C002008D
:1060E0006F6302006F6302006F6302000000000034
:1060F000000000006F630200000000006F630200F8
:10610000000000000000000000000000000000008F
:10611000000000000000000000000000000000007F
:10612000000000000000000000000000000000006F
:10613000000000000000000000000000000000005F
:10614000000000000000000000000000000000004F
:10615000000000000000000000000000000000003F
:10616000000000000000000000000000000000002F
:10617000000000000000000000000000000000001F
:10618000000000000000000000000000000000000F
:1061900000000000000000000000000000000000FF
:1061A00000000000000000000000000000000000EF
:1061B00000000000000000000000000000000000DF
:1061C00000000000000000000000000000000000CF
:1061D00000000000000000000000000000000000BF
:1061E00000000000000000000000000000000000AF
:1061F000000000000000000000000000000000009F
:10620000354936480A1A02D0072291438D4634494F
:1062100034480A1A06D00722914381F309880222E2
:1062200082F3148830483149314A00F044F831484B
:106230003149324A00F03FF831483249324A00F0E1
:106240003AF832483249334A00F035F83248334997
:10625000334A00F030F833483349344A00F02BF821
:1062600033483449344A00F026F83448344900228F
:1062700000F02CF833483449002200F027F8334866
:106280003349091A082902DB002202604160314AC1
:1062900090471F481F49884205D00268043003B464
:1062A000904703BCF7E700208646EC46002000211B
:1062B000294A9047FEE7884207D0521A05D0037852
:1062C00001300B700131013AF9D17047884202D098
:1062D00002700130FAE770470000042000E003205C
:1062E0000000042000000420487B0300402400201C
:1062F00010250020D4630200D46302001C40030078
:10630000487B030040240020402400204044030038
:106310004044030040440300404403004044030061
:10632000404403004044030040440300487B030012
:10633000187C0300102500201025002010250020C7
:10634000B8680020B8680020BC680020BC68002045
:10635000BC8800209D630200BD110300FEE7FEE73C
:10636000FEE7FEE7FEE7FEE7FEE7FEE7FEE7FEE705
:10637000704700BF1048804710484FF0070188431E
:1063800085460F4880470F48016841F4700101605D
:10639000BFF34F8FBFF36F8FFFF732BF0A480B4930
:1063A0000B4A884207D0521A05D0037801300B708F
:1063B0000131013AF9D170477163020000000420F5
:1063C000CDA3020088ED00E0E0420300E0220020BF
:0463D0004024002045
:1063D40000487047B06800207047000007B50022ED
:1063E40001A908F0B9FB30B9044A019813680133D4
:1063F400136002F056FD03B05DF804FB8C25002009
:106404000148FFF7EBBF00BF944003000148FFF7CA
:10641400E5BF00BFAC40030030B585B0054601912F
:10642400002401A9284608F008FB10B9204605B04D
:1064340030BD002203A9284608F08EFB0028F0D1C5
:10644400039802F02EFD0134EBE7000073B5836876
:10645400D3F84C319B07054603D50022114607F0BB
:1064640073FE154C154A24F47F6428464FF4805675
:10647400082124F00F0406F09DFD234628460096CB
:106484000F4A082106F096FD0E4B0F4A1B681C1B91
:10649400642363432846CDE900461B0B082106F01C
:1064A40089FD0A4B0A4A1B680821284602B0BDE848
:1064B400704006F07FBD00BF178C030074440300D6
:1064C4008844030084250020B54403008C25002063
:1064D400E444030000238B540A460068194606F07E
:1064E40069BD00002DE9F043384D87B007460E46DC
:1064F400DFF8E4801BE0DDF80890059440232B606E
:106504000822234603A94846CDE9034402F0E2FCED
:106514000C220DEB020140460DF006F99DF80C30FB
:1065240003F00303012B0BD0022B2CD02C60002290
:1065340002A9384608F010FB04460028DBD036E0F8
:10654400BDF80C40C4F38314A40008232246204958
:10655400484602F0BFFC2A6804F10C039A42E6D3D1
:10656400029A1C4C009221681B4A1C482B6002F0C2
:1065740007FF90B9F6B123682A6802981344236090
:1065840002F08FFCB4E7BDF80E40A409342C28BFF8
:106594003424033424F00304D7E776B904280CD157
:1065A400029802F07EFC0E4A1368013313600D4812
:1065B40002F048F807B0BDE8F083102898D102989B
:1065C40002F06FFC084B01221A7091E78825002025
:1065D4009C250020842500209025002028230020CD
:1065E4008C2500205025002000260020174A38B5AD
:1065F40013780446CBB90378012B25D1416879B9C6
:106604001348144A0368156811602B440360124848
:10661400FFF768FF6069B8B1BDE8384002F041BCDB
:106624000E4A136801331360F4E7012B0CD103788D
:10663400022B09D10A4B816823F47F6323F00F03F3
:10664400994204BF0023137038BD00BF0026002008
:106654008425002088250020944003008C250020F8
:10666400178C03000D4B1B7810B50C46A3B90846D4
:1066740002F013FC21460A48FFF7CEFE094A1368CC
:1066840018441060084801F0D4FF014620B90448BA
:10669400BDE81040FFF726BF10BD00BF0026002054
:1066A400944003008C2500205025002038B50B4C65
:1066B4002378012B0D460FD0084602F0EEFB294645
:1066C4000748FFF7A9FE2378022B05D101210448CE
:1066D400BDE83840FFF706BF38BD00BF00260020E4
:1066E400AC40030070B5002286B01B491B4802F081
:1066F4000BFE1B4B044650BB02221A70194B1A485E
:106704001A4E0125C3F884502946FFF7EBFE04F026
:10671400C40343F0290303948DF80C30039B144AFB
:1067240031680E4862F39F23124A0393C2E900348E
:1067340094600C23009402F023FE33680E480C335B
:106744002946336006B0BDE87040FFF7CBBE012296
:106754001A7006B070BD00BFCC5A03002823002075
:106764000026002000E100E094400300842500207E
:106774004044030090250020AC40030070B50E4651
:1067840001680446154621B9154921F47F6121F0B9
:106794000F012160134802F039FFF0B12168316024
:1067A4000B7803F0030301F10C00012B286003D0E4
:1067B400022B09D0052070BD0B88C3F383139B0003
:1067C400034423600020F6E74B889B09342B28BF41
:1067D4003423033323F00303F2E70620EBE700BF7F
:1067E400178C0300282300201FB5114B114C23F4F0
:1067F4007F6323F00F03E360014603F6FF73204633
:106804000022236102F080FD044668B9019003AAC6
:1068140002A901A8FFF7B2FF0028F8D0064B019A9D
:106824001A60064B00221A70204604B010BD00BF47
:10683400178C030028230020842500200026002034
:10684400F0B58368D3F84C319B0789B0044603D56F
:106854000022114607F078FC0023CDE90233204ED4
:10686400204D012703AA04A902A8FFF787FF0346C6
:1068740070BBDDE90301CDF81A30ADF81E308B682A
:1068840005938B88ADF818300B78346003F003025D
:10689400012A03D0022A10D00027E3E70F680A88F0
:1068A4000095C3F3C2038DF81C30014605ABC2F357
:1068B4008312B80A00F0ECFFEEE74988C3F3C20381
:1068C4008DF81C3005AA2B46890901F045F8E3E749
:1068D40027B1054A0221204606F06CFB09B0F0BD41
:1068E40004260020402400206244030010B5084C14
:1068F400084B094824F47F64012224F00F041A7021
:106904002146002302F0FCFD044B1C6010BD00BFB7
:10691400178C030000260020282300208425002053
:1069240008B58368D3F84C319B0703D50022114680
:1069340007F00AFCBDE80840FFF7D8BFF0B595B0F2
:1069440008460D4616461C4602F0A7FA1A9A0D92FE
:106954000023082205A928460A938DF82C300C93AD
:10696400CDE9086402F0B6FA079B0293069B0393F1
:1069740001238DF811309DF8143003F00302012A2D
:106984001DD1BDF81440059EC3F3C203C4F38314A0
:106994008DF81030A20008230EA9284602F09AFAB6
:1069A400C6F3952608AB0093224602AB0EA93046E7
:1069B40000F06EFF284602F074FA15B0F0BD022A0A
:1069C400F8D1BDF81640C3F3C203A4098DF8103002
:1069D4000827082C264628BF08263B4632460EA91F
:1069E400284602F077FAA41B08AB02AA31460EA887
:1069F400374400F0B1FF002CEBD1DBE708B501F020
:106A040067F80421034800F0BDFD034B01225A71CD
:106A140008BD00BFB042030058240020002304280E
:106A2400CB604B6098BF044B044A98BF53F82030A6
:106A34008A600B60704700BF684803004448030045
:106A4400CB6800225A717047C368DB6800225A7110
:106A54007047CB6801225A717047C368DB68012212
:106A64005A7170470D4A8A6070B50D4A0D4C002367
:106A7400121BCB604B600B6012091D469A4207D073
:106A8400E6683679FF2E05D0854202D1A3680B60F3
:106A940070BD013501331034F0E700BF7C480300BA
:106AA400E0420300B04203002DE9F74F164D174CA6
:106AB40052F8047C0193641B0646894692462409D5
:106AC4004FF00008444508D1114A3B4602213046A4
:106AD40003B0BDE8F04F06F06DBAA96838460CF073
:106AE400A1FEAB46103510B108F10108EAE7DDED6F
:106AF400017A17EE90CA53464A465946304603B0C7
:106B0400BDE8F04F604700BFB0420300E04203001D
:106B1400B4490300014BFFF7C7BF00BFFD7002007B
:106B2400014BFFF7C1BF00BF456A0200014BFFF7ED
:106B3400BBBF00BF576A0200014BFFF7B5BF00BFE0
:106B4400356F0200037813F0040216D003F0030338
:106B5400012B03D0022B09D0012070470A6800885A
:106B64000232C0F3831002440A60F5E70B684288DE
:106B7400023303EB92130B60EEE7104670470000FC
:106B84002DE9F04F87B000230446851C0DF1070062
:106B94000F4690468DF8073001F0F4FB454806682F
:106BA4003E60D0E90132134401339B1B824600F25C
:106BB4001C4600F5836900F21447AB421BD3002244
:106BC400B8F1000F70D0052363F3070264F3891250
:106BD400DAF80010DAF808309DF807000B400333A8
:106BE4000D444AF82320CAF8005001F0EFFB0120BD
:106BF40007B0BDE8F08F0121304601F004FD48469E
:106C040001F01AFD384601F017FDDAF80400DAF84D
:106C140008B0029000EA0B0003300AEB800002A9DE
:106C2400FFF790FF029B50BB0BEA03020AEB8202C0
:106C340003F1020CD2680392013303EA0B0B0AEB53
:106C44008B0B02F00302012ACDF808C0DBF80C100C
:106C540022D0022A16D08346384601F0F0FC10B147
:106C6400029BCAF804305946304601F0CCFCDAE9FC
:106C740001231344DAF8002001339B1A9DE70BEA41
:106C84000300C9E7BDF80E309B0903334FEA114BEB
:106C94000CEB93030293DFE7BDF80C30C3F38313CB
:106CA4004FEA114B6344F5E7062363F3070264F3E9
:106CB4009F528DE7E0280020012907B5034604D040
:106CC4008168D1F84C11890707D50022114618466E
:106CD40003B05DF804EB07F037BA53680193054B32
:106CE40000931368044A022106F064F903B05DF8C6
:106CF40004FB00BF2E460300244603002DE9F3479E
:106D04008368D3F84C41C4F34004074634B10022ED
:106D1400114602B0BDE8F04707F016BA144E154DFF
:106D2400DFF85880DFF85890DFF858A0AD1B2D0924
:106D3400AC4202D102B0BDE8F087F268B3681179C1
:106D4400FF2907D10C4A0821384606F033F90134EB
:106D54001036EDE75279002A14BF42464A46CDE97F
:106D6400002138465246082106F024F9EFE700BF17
:106D7400B0420300E04203005446030043460300CC
:106D84004B4603007346030030B50A4B0A4A0B49CD
:106D9400D21AD20800239A4201D1052006E031F824
:106DA40023500468A54202D10360002030BD0133A2
:106DB400F1E700BFC0410300B042030050230020AC
:106DC4002DE9F84F224B2348FF229A600022C3F892
:106DD4001824C3E90022C3F8142483F8202402F001
:106DE40015F8814688B91C481C4E1D4CDFF87CA060
:106DF40002F0B9F8A41BE4084D46A54208D10023CB
:106E0400184A19481946A3421BD14846BDE8F88FD1
:106E14004FF00008474606EBC50BBD420AD01422CA
:106E240056F83710DBF800000CF0D8FB0028C8BF78
:106E340008F101080137BC42EFD12AF82580013559
:106E4400DBE720F8231042F8041B0133DBE700BF23
:106E5400E0280020DC40030038480300C041030060
:106E6400B0420300C82300205223002050230020F6
:106E740007B5019031B9019A064B53F8320003B0BB
:106E84005DF804FB01A8FFF77FFF0028F3D0002082
:106E9400F5E700BFC0410300002310B5CB604B6091
:106EA400034B8B600C460121FFF7E2FF206010BD0D
:106EB40044480300094B013903EBC000032909D8F6
:106EC400DFE801F00A0204060420704700797047E5
:106ED400407970470020704702207047C04103008A
:106EE40030B5114C00EB400054F821508240072388
:106EF40083406A401A400D4B6A40C2F3821044F842
:106F0400212003EB8101C2F3C203834238BF03464D
:106F1400C2F34220834202F0070238BF03469A427A
:106F240038BF1A464A8030BDC823002050230020B1
:106F34002DE9F74F06461D469046002A4FD0CB68F0
:106F440028684B4993F8049007220CF047FBD0B90A
:106F5400B8F1010F07D1474A0221304603B0BDE81A
:106F6400F04F06F027B8444F04460A2257F8041B92
:106F740068680CF033FB002873D00134052CF4D17D
:106F84006B683E4A13E008223D4928680CF026FB52
:106F940058B9B8F1010F04462AD00127394A3A4BAF
:106FA4009B1A4FEAD30A934645E02B68374A0221DD
:106FB400304603B0BDE8F04F05F0FCBF18F835309B
:106FC400A3420FD200212846FFF752FF5246034640
:106FD4000221304605F0EEFF0135BD42EED103B08B
:106FE400BDE8F08F224629464846FFF779FFF3E7CC
:106FF400244B254FDFF89CA0FF1AFF08002503F15E
:107004000608EAE7184600210193FFF731FF0099CB
:1070140020220CF0E3FA019B014608B1013310E091
:107024000BEBC3029279A24215D322461946484675
:10703400FFF756FF01374745D1D255F82730009363
:1070440000239A45DED155F82730114A02213046F3
:1070540005F0B0FFEEE71846FFF70AFF0D4A0346B6
:10706400F4E7B8F1020FE4B2C2D0022796E700BFFA
:107074000D47030014470300544803007F470300EF
:107084002B470300C0410300B04203003347030011
:107094006B4703004847030013460A46C168FFF7DD
:1070A40047BF000013B504460191A3B162B9019A28
:1070B4000F4B04EB4404072053F82230A04018403F
:1070C400E040C0B202B010BD01A8FFF75DFE002889
:1070D400EDD00020F6E72AB9019A064B03EBC20370
:1070E4009879EFE701A8FFF74FFE0028F1D1F3E705
:1070F400C8230020C0410300284B294A2DE9F04F42
:107104009B1A4FEAD309CB685B7985B005460E46D6
:107114001BB9244A022105F04DFF234B234A244F77
:107124000821284605F046FF224A0821284605F092
:1071340041FF00244C4502D105B0BDE8F08FF3684F
:1071440093F8048001231A4621464046FFF7AAFF1C
:1071540001222146834600234046FFF7A3FF03286C
:10716400034628BF03235FFA83FA804601212046A1
:10717400FFF77EFE57F82A3001930F4A0F4B57F85A
:107184002B100091D04598BF134602930C4A034636
:107194000821284605F00EFF0134CBE7B042030076
:1071A400C04103009E470300B1470300BD470300ED
:1071B40054480300DB470300A26F03009C4703000D
:1071C4001848030013460A46C168FFF795BF00003C
:1071D400034BD3E90030C31A58425841704700BFEB
:1071E400E02800202DE9F04F87B0FFF7F1FF0646B5
:1071F400002840F01A818E4DC5F81804BFF34F8F54
:107204006868AC6802902040033005EB800002A956
:10721400FFF798FC029B18B1D5F81824002A66D011
:1072240004EA0302991C013305EB8202234005EBB7
:107234008303D268DB68049302F00303022B0392F6
:10724400029169D1BDF80E307A489DF80C604FEA7E
:10725400931ABAF5A07FD14628BF4FF4A07969F3F9
:107264008F1309F10801ADF80E3001F0E7FDC6F304
:10727400C2068046002800F0BF8001F00EFE03A97C
:1072840000230822404601F01BFE029924EA01076C
:107294000137BF00B94538D95FFA89F997B3FFB20E
:1072A400A9EB0709214003315FFA89FBB946624F14
:1072B40005EB810108234A46404601F001FE37B13F
:1072C40009F108035A463946404601F0F9FD029B8C
:1072D4000AF1030A03EB9A030293D5F81834002B3E
:1072E40050D1D5F81044DFF8649107276FE02A687D
:1072F4009A4204D86A60304607B0BDE8F08F04EAC9
:10730400030081E74C49BB46D4E7214003310823FD
:107314004A4605EB8101D7E7012B6DD1BDF80C601E
:107324004448C6F38311062928BF062161F3891650
:1073340002318900ADF80C6001F080FDC6F3C2068D
:107344008046002858D001F0A8FD0023082203A994
:10735400404601F0B5FD0027BDF80C20C2F38312AE
:10736400BB00974203F10803B7D202994A1C21409B
:107374000331029205EB81010422404601F0A0FD95
:107384000137E9E7404601F08CFDFFF721FF80F06B
:107394000100C6B2AFE7E3685A79B2B11B79BDF810
:1073A400101003EB430259F8211007FA02F3052EDB
:1073B40003EA010323FA02F308BF0326B34204D30A
:1073C400236841461B6820469847E3681C68002CE4
:1073D400E1D1404601F065FD0DF107008DF807404D
:1073E40000F0D0FFD5F818340BB9029B6B609DF800
:1073F400070000F0EBFFC8E7D5F8104474B90F4B51
:107404005B88012BC1D90E4B0E480F49C01AC00826
:10741400000440F0020000F073F8B6E72368204649
:107424009B689847E3681C68E8E7002663E700BFA9
:10743400E0280020DC400300EC2800206823002022
:10744400C0410300F0410300634A0300C823002045
:107454002DE9F74F284C80460F46924601A9012298
:1074640018469B46D4F80890FFF78AFB80B3019D29
:107474000026A91C5E4506EB010233D100211F48FA
:1074840001F080F880F310006A1C02EA090204EBA0
:107494008202000405EA0903033340EA1840D0607D
:1074A40014F8232068F3C50204F8232034F82320B9
:1074B40066F3891224F8232054F8232067F39F22CB
:1074C40044F8232002F0F80242F0010204F82320D9
:1074D40094F820341BB1FFF785FE0028FBD103B0DC
:1074E400BDE8F08F09EA020204EB82025AF8263062
:1074F400D3600136BEE700BFE0280020FC2C00204A
:1075040000231A46FFF7A4BF07B50123019201AA7D
:10751400FFF79EFF03B05DF804FB07B5CDE9002338
:1075240002236A46FFF794FF03B05DF804FB1FB51E
:10753400CDE90123069B039301AA0323FFF788FFE8
:1075440005B05DF804FB1FB5CDE90023069B02934B
:10755400079B03936A460423FFF77AFF05B05DF89F
:1075640004FB7FB5CDE90123089B0393099B049396
:107574000A9B059301AA0523FFF76AFF07B05DF88C
:1075840004FB00001C4A2DE9F843D2F810340746E6
:1075940088460024194689B9F9680C71A3B9C2F860
:1075A40010740B60154B164DED1AED08002603F10F
:1075B4000709AE420DD12046BDE8F883C9680879B1
:1075C400A04212D00968E6E7DB681A680A601F6007
:1075D400E8E719F83620FB684245314628BF4246A1
:1075E4001879FFF77DFC0136E3E701340A2CD1D189
:1075F4004FF0FF34DFE700BFE0280020C041030064
:10760400B0420300094A38B50123D2F8104482F885
:1076140020341D4604B938BDE3685D7123682046F3
:107624005B689847E3681C68F4E700BFE028002023
:1076340010B588B00023CDE902330493CDE90033BB
:107644001E4B1F4A05931F4B06929B1A9B080793D8
:1076540002AA6B4643F2274141F26E0002F097FE04
:10766400B0B905A902A802F08BFE174B5B88022B68
:1076740004460AD91548164B1649C01AC008000416
:10768400224640F00300FFF73FFF204608B010BD3C
:107694000A2810D105A902A802F06EFE0A4B5B88E5
:1076A400022B0446F1D90948094B0B49C01AC008FA
:1076B40000042246E5E70324E7E700BF6E10273401
:1076C400C82300204024002068230020F041030048
:1076D400C0410300014A0300324A030010B5836825
:1076E400D3F84C319B07044605D500221146BDE86A
:1076F400104006F029BDFFF79BFF30B9044A08216A
:107704002046BDE8104005F055BC024A0221F7E7C7
:10771400D0460300E846030000B589B00023CDE954
:1077240005330793CDE9013305AA01AB43F22741A1
:1077340041F26E0002F02BFE90B9CDE9030003A9DB
:1077440005A802F0D3FD40B90F48104A0499121A53
:107754000BF0EAFF05A802F0EDFD09B05DF804FBAB
:107764000A280FD10A4B5B88012B09D909480A4B17
:107774000A49C01AC008000440F00200FFF7C0FE26
:107784000520EAE70320E8E7C8230020402400207E
:1077940068230020F0410300C0410300DC490300DA
:1077A40010B58368D3F84C319B07044605D50022F5
:1077B4001146BDE8104006F0C7BCFFF7ADFF30B975
:1077C400044A08212046BDE8104005F0F3BB024AF4
:1077D4000221F7E794460300AC460300037A052B25
:1077E40010B50C460FD0437A23B1084A0849204605
:1077F40000F0E4FF0749204600F0E0FF2046BDE822
:10780400104000F0D0BF002AF8D0F3E7E34C0300A7
:10781400D06103003E530300C38873B504460D468C
:1078240033B1144A00921449144A284600F0C6FFA2
:10783400217A05291CD0637A4BB1A088FFF73AFB63
:107844000F4B104953F82020284600F0B7FF227A46
:107854000D4BA08853F822600021FFF709FB0B4968
:1078640003463246284602B0BDE8704000F0A6BF89
:1078740002B070BDE34C0300F04C0300E84C03007D
:10788400B04C0300D0610300144D0300084D030005
:107894002DE9F04385B01F460C9D002306460C4697
:1078A400904695F80C902B7329463846FFF7B4FFA1
:1078B400B8F1060F09D8DFE808F00412181F2833BE
:1078C40040003146284600F079FF00222946384618
:1078D400FFF784FF85F80C9005B0BDE8F0832268BB
:1078E4003146284600F06AFFEFE7D4E90023314629
:1078F400284600F063FFE8E7A36800933146D4E923
:107904000023284600F05AFFDFE7E3680193A368E9
:1079140000933146D4E90023284600F04FFFD4E712
:1079240023690293E3680193A36800933146D4E981
:107934000023284600F042FFC7E7636903932369E5
:107944000293E3680193A36800933146D4E90023CA
:10795400284600F033FFB8E708292DE9F84F8046A0
:107964000E4617461C463AD8002593F80C901D7312
:1079740019461046FFF750FFDFF884A0DFF884B003
:10798400AE422ED918F805205946204600F016FFBD
:107994000135082DF4D11849DFF86CB0204600F009
:1079A4000DFF4FF0000A564520D918F80A507E2DD5
:1079B40003D828460BF027FC00B92E252A46594641
:1079C400204600F0FBFE0AF1010ABAF1080FEAD1E1
:1079D400012221463846FFF701FF84F80C90BDE8E8
:1079E400F88F5146204600F0E9FED1E703492046CE
:1079F40000F0E4FEE7E700BFDE4C0300DC4C0300CC
:107A0400DA4C0300D44C0300E04C03007047000040
:107A140007B5044B0093044A4023FEF78FFF03B0DD
:107A24005DF804FB897A0200292E002070B5064611
:107A340003291BD8DFE801F0021B0F170D4D0E4C74
:107A4400304608F0ECFA01222946204608F0ECFA08
:107A54000028F5D00AE001220649074808F0E4FAB4
:107A6400064B012201E0054B00221A7070BD044B45
:107A7400F7E700BF282E0020604D0300A92E002048
:107A8400AA2E002038B50C4C002020700B4800783A
:107A9400154680B10A480BF047FE2A4608490948B2
:107AA40008F09CFA08B100F071F9074B1A7812B18A
:107AB4002378002BFBD038BDAA2E0020A92E00204D
:107AC400692E0020604D03009C2D002070470000AB
:107AD40008B5054807F0A0FA08B100F057F9034BC0
:107AE40001221A7008BD00BF604D03009C2D0020C8
:107AF4002DE9F04F394E87B04FF00009384B1B7811
:107B04005FFA89F5AB4202D807B0BDE8F08F354B78
:107B1400D3F800A01AF835000124D6E9001EA0F11C
:107B24002002C0F1200304FA02F224FA03F31343FF
:107B340004FA00FC009301EA0C030293009B0EEA92
:107B440003030393DDE9022313430AEBC50B41D07E
:107B5400009B21EA0C012EEA0303C6E9001303F09B
:107B64008FF91AF835502049A5F12002C5F12003F8
:107B740004FA02F224FA03F31343D1E900C2AC403D
:107B8400134004EA0C0105930024C3B2CDE9003488
:107B9400009A0491C5F12003A5F1200122FA03F310
:107BA40002FA01F848EA03081346AB401F46DDE930
:107BB4000434444508BFBB420CD1DBF804304BB15C
:107BC4009BF801104A1E51425141081A4142414159
:107BD4002846984709F1010990E700BFD82E0020F4
:107BE400AB2E0020E02E0020D02E00202DE9F04105
:107BF4008046204800F0B6FBD0BB0125A8F1200444
:107C0400C8F1200325FA03F305FA04F41C431A4BC4
:107C1400D3E9001205FA08F501EA050602EA0407A9
:107C240056EA07001E461DD1404603F029F9134BBE
:107C3400D3E9001288B129432243C3E90012D6E9EB
:107C440000231C430E4B0B4819681543C6E9005426
:107C54000022BDE8F04100F03FBB21EA050122EA21
:107C64000402EAE721EA050522EA0404C3E9005410
:107C7400BDE8F081B02E0020D82E0020D02E0020A8
:107C8400AC2E0020042A2DE9F34105460C46164685
:107C94003AD903F003F8D8B11C4B1D491D601D4BA4
:107CA400DFF884801C701C4B00221E600023C1E995
:107CB40000231A49C1E90023013CE4B2002603274A
:107CC400FF2C0CD1164A1748002100F0F3FA03E008
:107CD40002F0ACFF0028DFD002B0BDE8F08123B28F
:107CE40005EBC30201A992788DF8052015F833003D
:107CF4008DF8066042468DF8047002F0D9FF013C0D
:107D0400E4B20028DCD0E7E70720E5E7E02E002016
:107D1400D02E0020AB2E0020AC2E0020D82E002028
:107D2400F57A0200904D0300F17B020070B5084D16
:107D3400084E00242B789C4201D3002070BD336888
:107D4400012113F8340003F02FF80134F2E700BFE7
:107D5400AB2E0020E02E002070B5094D094E002402
:107D64002B789C4204D30848BDE8704000F0FABA6E
:107D7400336813F8340003F061F80134F0E700BF0E
:107D8400AB2E0020E02E0020B02E00201FB50021D5
:107D9400039001AA44F20100CDE9011100F004F8B6
:107DA40005B05DF804FB000010B572B6FFF72AFCBD
:107DB400FFF718FA0028FBD1154C62884AB1154820
:107DC400154B1649C01AC008000440F00100FFF723
:107DD40097FB134B1B68DB0700D500BE6388012BA0
:107DE40009D90C480C4B0F49C01AC008000440F0D4
:107DF4000200FFF785FBBFF34F8F0B490B4BCA689B
:107E040002F4E0621343CB60BFF34F8F00BFFDE782
:107E140068230020F0410300C0410300944D030097
:107E2400F0ED00E0A04D030000ED00E00400FA05D1
:107E3400094A537891780133DBB2994208BF002391
:107E4400117899421FBF03705078182303FB002058
:107E540014BF043000207047E42E002073B505469B
:107E640000240DF107000E468DF8074000F08AFA51
:107E74000DF10600FFF7DCFF90B10670094B9DF889
:107E8400062045605A709DF8070000F09FFA24B957
:107E9400054B4FF48012C3F80021204602B070BD98
:107EA4000424F0E7E42E002000E100E0024B4FF44C
:107EB4003C6043F001031847B04D030038B50C4B48
:107EC4000C4C4FF40032C3F8802001254FF480336A
:107ED400C4F84833C4F808336560FFF7E7FF064B7E
:107EE400A56000241C60FFF7E1FF044B1C7038BD43
:107EF40000E100E00010014000300020F12F0020DC
:107F0400F8B51F4B1F491B680025C1F84051C1F843
:107F14004451C1F84851C1F84C51C1F80051C1F85D
:107F240004514BB3D1F8044517490968641A24F085
:107F34007F442F461A68A24209D8A41A15441A7C11
:107F4400DE691AB11F74D3E905209047AEB90F4A10
:107F54000F4B11781B788B4205D10133DBB2022B16
:107F640008BF0023137012780A4B43F822500A4BBF
:107F74004FF48012C3F80021F8BD3346DAE700BF9E
:107F8400043000200010014000300020FD2F0020AC
:107F9400FC2F0020F42F002000E100E02DE9F04F39
:107FA400A14AA24913780978A14D994285B03CD0E1
:107FB4000133DBB2022B08BF002313709D491278F2
:107FC4009D4B0F6853F822003B1823F07F43002297
:107FD4000B602B6816461446944613B942B12B60C5
:107FE40006E0196881420ED902B12B60091A1960A2
:107FF40001272B68DFF848A201934FF00008BEB9AF
:10800400DFF844B266E0401A0C44D968C3F800C0F3
:10801400D3F81CE031B13A1922F07F42C3E90121BF
:10802400DE611E4601227346D7E700263746E0E7A5
:108034003446F6697F4A63681268DFF810C2A068A4
:10804400991A21F07F41614500F2A6800144216024
:10805400012222742A680023C4E90133E361002A5F
:1080640040F0A3802C60CAE75A1C9BF80210D2B2DD
:1080740091428BF8002004BF00228BF800201822C4
:1080840002FB03B31A799C68022A1CD0032A12D07B
:10809400012A1FD1207CE8B9D3E90312A2605A69EE
:1080A400E2609A69654BA2611B78002B0CBF0B46FA
:1080B40003466360BEE700222B681146002B67D19C
:1080C40042B12B6006E029680A468946002A5AD143
:1080D400002323749BF800309BF801209A42C3D1FB
:1080E4002B68B8F1000F04D1019A9A4201D1002FF4
:1080F40043D0002B73D0D3F800A0514D4D4BD5F88D
:1081040004751C68DFF848813E1B98F8003026F09F
:108114007F4603369BB94FF48033C5F84433C5F822
:108124000433484B4FF400324FF00109C3F8802167
:108134001A60C5F80090FFF7B9FE88F80090B245C0
:108144002CBF5444A41924F07F44C5F84045D5F805
:108154000435DB1B23F07F43E41B033324F07F440B
:10816400A3420AD9D5F80435C5F84035FFF79EFE79
:10817400344B4FF40032C3F80021304B00221A7004
:1081840005B0BDE8F08F94422CD09146D2699DE7AA
:1081940019740122DB6991E7D31A23F07F438342E8
:1081A40034BFC31A0023236052E72168136899423D
:1081B40013D8591A1160E26154E7091AD8691A46AA
:1081C40038B1034618688842F7D3401A1860184635
:1081D40013462160E061DC6111E71346F2E7FFF723
:1081E4006DFECAE74C4511D1CB692B6073B9DFF83A
:1081F40044E00120CDE90212CAF80800CEF80030AC
:108204000E4B1870FFF752FEDDE902121368D269B3
:10821400C9F81C2012B11068034413602B689942FA
:1082240018BF4FF0010853E7FC2F0020FD2F00205A
:108234000430002000300020F42F0020F02F002014
:108244000010014000E100E0E42E0020FEFF7F006A
:10825400F12F002008B5FFF731FE104B00200B2250
:1082640018809A700E4B18600E4B18700E4B1870D5
:108274000E4B4FF48012C021C3F8802183F81413ED
:108284001A6002F18042A2F56F22C2F8080583F851
:108294001113074BD2F804251A6008BDE42E002000
:1082A40004300020FC2F0020FD2F002000E100E01E
:1082B40000300020074B9B784BB132B128B10368E2
:1082C400187C20B959745A617047072070470820F8
:1082D400704700BFE42E00202DE9F7431E4FBB7802
:1082E40005460E469046A3B398B304292FD9436993
:1082F4007BB3437C0024012B0DF107000CBF89469E
:10830400A1468DF8074000F03DF80DF10600FFF797
:108314008FFDD0B101230370104B4560D3F80435B1
:10832400C0E90498C0E902369DF806307B709DF8D8
:10833400070000F04BF824B9094B4FF48012C3F83E
:108344000021204603B0BDE8F0830424EFE70724AE
:10835400F7E70824F5E700BFE42E002000100140F1
:1083640000E100E0064A92783AB130B1426922B1A4
:10837400002202740221FFF771BD0820704700BF7C
:10838400E42E002070B5EFF3108672B60C4A9468A0
:1083940001239CB993600B4B0B4DD3F880102940FB
:1083A4001160C3F88050D3F8841051604FF0FF324D
:1083B400C3F88420047006B962B670BD0370FAE78E
:1083C4000830002000E100E0FC06FFBD084B9A687D
:1083D40010B55AB150B9EFF3108172B6054A1C6852
:1083E40014605C685460986001B962B610BD00BF47
:1083F4000830002000E100E010B561B1B2FBF3F4F5
:1084040003FB1424A4B244B9C0E90014846082813B
:10841400C381204610BD0E20FCE70920FAE782B094
:1084240050E8022FC188B2EB324F4FF0000317BF60
:1084340092B241EA014142EA014104E04268B2EBEE
:10844400324F08BF012340E80212002AE8D18DF818
:1084540007309DF80730002B0CBF1120002002B01C
:10846400704737B550E8013F9DB2C48925448489DB
:10847400A54228BF2D1B0489A54202BFBFF32F8F3D
:10848400002207E0C5EA030540E80154002CE9D1C5
:108494004FF001028DF803200193019B9DF8032006
:1084A4000B6002F0FF0322B10B880068184403B08C
:1084B40030BD1846FBE70A884B889A4209D150E838
:1084C400012FC2EA024240E80123002BF7D1012028
:1084D40070470020704737B550E8023F1FFAA3F5F4
:1084E400C488A54202BFBFF32F8F00220DE0C489C8
:1084F40025448489A54228BF2D1BC3EA054540E8CD
:108504000254002CE8D14FF001028DF803200193AE
:10851400019B9DF803200B6002F0FF0322B14B88FE
:108524000068184403B030BD1846FBE70A884B883E
:108534009A4209D150E8022FC2EA224240E80223BB
:10854400002BF7D1012070470020704701F01F0273
:108554004B090121914000EB830000F028B801F0A1
:108564001F0301229A404B0900EB8300D14300F022
:1085740034B84B0901F01F0150F82300C84000F043
:108584000100704750E8002F0B4640E8003C9CF087
:10859400000FF7D11046704750E8002F42EA01035C
:1085A40040E8003C9CF0000FF6D11046704750E8BC
:1085B400003F43EA010240E8002C9CF0000FF6D192
:1085C4001046704750E8002F02EA010340E8003CDF
:1085D4009CF0000FF6D11046704750E8003F03EAC4
:1085E400010240E8002C9CF0000FF6D110467047C1
:1085F40050E8002F02EB010340E8003C9CF0000F20
:10860400F6D11046704750E8003F03EB010240E802
:10861400002C9CF0000FF6D11046704750E8003F44
:10862400A3EB010240E8002C9CF0000FF6D11046A9
:1086340070470121FFF7B0BF0121FFF7B8BF002148
:10864400FFF7C0BF0021FFF7C8BF00002DE9F047C6
:108654008368D3F84C41C4F3400488B0074634B16E
:108664000022114608B0BDE8F04705F06DBD0129B0
:1086740006D91E4A022108B0BDE8F04704F09ABCAE
:108684001B4D1C4EDFF870A04FF06408A146761B0A
:108694001C23B6FBF3F6A64205F11C0502D108B073
:1086A400BDE8F08755F81C0C55E9062301790068EC
:1086B4009A1A1B1ADBB2039308FB03F3B3FBF2F31E
:1086C400CDE9019335F8043C0093CDE9061255F841
:1086D400083C11FB08F13846B1FBF2F1CDE9042165
:1086E4005246082104F066FC0134D4E7A05203008A
:1086F400DC40030030410300B352030010B590B1D5
:10870400D0E9012301689B1ADBB20A60013BDBB2AA
:10871400FF2B026802D10020107110BD11684C1C9F
:1087240014600B70F2E70E20F7E737B50546002416
:108734000DF107008DF80740FFF724FE2A686B68E7
:10874400116899420ED9481E106011F8014CEB686B
:10875400298B01FB0434AB6811791B1ADBB29942F3
:1087640038BF13719DF80700FFF730FE204603B0B1
:1087740030BD37B5054600230DF107000C468DF8D2
:108784000730FFF7FFFD2A681368591C1160E96878
:10879400641A298BB4FBF1F41C709DF80700FFF7F1
:1087A40015FE03B030BD826810B504462AB1436992
:1087B4000168006998470023A36010BD0EB403B597
:1087C400039921B104AB01AA019300F06DF802B042
:1087D4005DF804EB03B07047826830B40468551C3C
:1087E4008560A154D0E901329A4202D330BCFFF72C
:1087F400DABF30BC704700002DE9F84F9946DDE937
:108804000A431746824688460A460126BA420FD2D0
:108814004E4538BF4E4613F0010B01D164B9002414
:108824000125B9F1010F1AD909F1FF397D43F8E7A0
:10883400B2FBF7F20136E9E79B070ED5B9F1000F59
:108844000CBF30252025A642EAD2013C29465046D9
:10885400FFF7C2FF002CF6D1E1E72025F3E7B8FBD0
:10886400F5F39F42E2D9DFF83C90B8FBF5F35046AC
:1088740019F8031005FB1388FFF7AEFFB5FBF7F3F8
:10888400BD4207D2BBF1000F02D00CB1A64203D304
:10889400BDE8F88F1D46E8E720215046013CFFF76C
:1088A4009BFFF2E79C5303002DE9F74F054617465B
:1088B4008846002900F0308118F8011B49B92B7B48
:1088C400002B00F02981284603B0BDE8F04FFFF7E4
:1088D4006ABF252940F0C080002698F800302D2B6F
:1088E400424608F1010823D0302B24D02B2B25D06D
:1088F40000242A2B02F1010123D13B681A1D1B68B5
:108904003A601C440A4613782E2B26D101324FF0CC
:108914000009104610F8011BA1F1300CBCF1090F3D
:108924001DD80A2303FB0913A3F130090246F0E71B
:1089340046F00106D1E746F00206CEE746F004060B
:10894400CBE711F8013CA3F130000928DBD80A2257
:1089540002FB0434303C0A46CBE74FF0000912F81E
:10896400011B01F0FB0068289046F8D069290ED05D
:108974004AD8582964D006D825296DD098F80030F3
:10898400002B99D19BE7632962D06429F6D13A6818
:10899400D2F800A0111D8AEAEA723960A2EBEA72E9
:1089A4004FF0010B092A5BDCCB4538BFCB462CB119
:1089B400BAF1000F01DB720700D5013CB30702D501
:1089C400B9F1000F04D0F00702D4002C4ED10024DA
:1089D400BAF1000F52DACAF1000A2D212846FFF736
:1089E400FBFE06F00302022A05D1B9F1000F02D101
:1089F400002C47D10024CDE900464B460A225146BB
:108A04002846FFF7F9FEB9E773294CD014D870292A
:108A1400B4D13B681A1D3A60302128461C68FFF720
:108A2400DBFE78212846FFF7D7FE00220823CDE994
:108A3400003221461022E3E775292BD078299DD1F5
:108A440039680A1D3A60CDE900464B46102228E0F9
:108A54003B681A1D19783A602846FFF7BDFE8DE77A
:108A64000A230BF1010BB2FBF3F29BE7A345AFD250
:108A740020212846013CFFF7AFFEA6E77107B0D5D9
:108A84002B21ABE7A345B6D230212846013CFFF7A2
:108A9400A3FEADE73968CDE900460A1D3A604B46AE
:108AA4000A220968ACE73B681A1D3A6016F0010611
:108AB400D3F800A020D1BAF1000F03D050460AF039
:108AC400D8FE0646B44200D9C4B90AF1FF3A1EE002
:108AD40028460136FFF780FE1AF806100029F7D160
:108AE400A642BFF44BAF002C3FF448AF20212846E8
:108AF400013CFFF771FEF3E70026EDE7202128464D
:108B0400013CFFF769FEDDE72846FFF765FE1AF82A
:108B1400011F0029F8D131E703B0BDE8F08F0B073E
:108B240010B5044607D50AF037FB20B12046BDE84E
:108B340010400AF06DBB204610BD2DE9F04F87B000
:108B44008A4615460293064618B9012007B0BDE8C7
:108B5400F08F0029F9D0029B002B00F0118102F064
:108B640004030C460493B046294618F8010BFFF79A
:108B7400D6FFC7B23F2F22D00ADCCFB12A2F36D07E
:108B8400294614F8010BFFF7CAFF87421FD0DCE720
:108B94005B2F7CD05C2FF3D1EB07F1D4294670789E
:108BA400FFF7BDFFC7B2002FEAD006F10208E7E7DE
:108BB400E906207838D52F2836D10020C6E7237857
:108BC400002BC2D02F2B04D1AA07BED401344646B1
:108BD400C9E72E2BFAD1049B002BF7D05445B4D00F
:108BE400AB07F3D514F8013C2F2BEFD1ADE7707828
:108BF4002946FFF794FFC1B22A2919D023782E2BD6
:108C040009D1049B3BB154459FD0AF0703D514F859
:108C1400013C2F2B99D079B9AE07CED5ED06CCD433
:108C24002F2120460AF0CAFC003018BF01208DE72E
:108C3400294618F8010FDCE72F2901D1A8071FD412
:108C4400029B25F004095F1E05F0020AA34629468B
:108C54009BF80000FFF763FFC6B20134002E3FF417
:108C640074AF3B464A4659464046FFF766FF012823
:108C74007FF46CAF2F2EE9D1BAF1000FE6D064E790
:108C840020460AF09BFC04460028A0D15DE720782A
:108C940000283FF45AAF2F2802D1A9073FF555AF5A
:108CA4002946FFF73CFF8346B8F1000F3FF44DAF70
:108CB4007378212B01D05E2B25D1023601230122AA
:108CC400019305EA02034FF000090393374629464E
:108CD40017F8010B0592FFF722FFC3B25D2B059A2B
:108CE40014D112BB019B4B453FF42FAF002F3FF42F
:108CF4002CAF7A1C04D123785B2B7FF426AF474634
:108D04000134B84663E746460023D8E72F2BF2D058
:108D14005C2B07D1039A42B929467078FFF7FFFE0E
:108D2400B71CC3B2002B3FF410AF3A782D2A21D1DF
:108D3400294678780593FFF7F2FEC0B2059BC8B1C7
:108D44005D2817D05C2807F102060BD1039A4AB9B3
:108D54002946B878FFF7E3FEC0B200283FF4F5AE29
:108D6400059BFE1C9B4503DB8345D8BF4FF00109DF
:108D74000022ABE73E469B4508BF4FF00109F7E7E9
:108D84000320E3E64023FFF7D8BE2DE9F047B0F80F
:108D940006904479D2F800A09DF8208009FB04F4E1
:108DA400043C06460AEB0300A0420F4688BFA4EB2E
:108DB400030A191DC2F800A0B1FBF9F509FB15114E
:108DC4004DB9A9EB0104544528BF5446BAF1000F2C
:108DD40004D1BDE8F0873668013DF1E704317B1921
:108DE40070182246B8F1000F0ED001461846AAEBBF
:108DF400040A0AF099FCD145254436684C464FF0E4
:108E0400000128BF5446E1E71946F0E7FFF776BCB6
:108E1400F8B546790146721E0546002393422D6833
:108E240003D30024A64202D8F8BD0133F6E70F6845
:108E34002846FFF79EFC01343946F3E72DE9F84351
:108E4400068BCD1C0746FFF770FC043E35440446F0
:108E5400B5FBF6F5F0B14FF48073EDB28380C680B4
:108E6400013D076081464FF00008A84512D23846FC
:108E7400FFF75BFC064648B163790133637108F17F
:108E84000108C9F8000007608146EEE72046FFF7B5
:108E9400BFFF34462046BDE8F88301210430FFF7C4
:108EA400B2BB10B5012104460430FFF7B7FB10F044
:108EB400FF0F04D12046BDE81040FFF7A9BF10BD45
:108EC4001FB503920022009203AAFFF75EFF05B0CC
:108ED4005DF804FB1FB503920122009203AAFFF779
:108EE40054FF05B05DF804FB41DF7047064B10B535
:108EF40000241C70054B1C60BFF35F8F04490548B8
:108F040000F03AF8204610BD1C300020203000202C
:108F1400AC5303001430002007B500230DF1070003
:108F24008DF80730FFF72EFAF1EE103A23F09F0385
:108F3400E1EE103ABFF35F8F094B4022C3F884215E
:108F44009DF80700FFF742FA09F00CFF20B1FFF784
:108F5400CBFF03B05DF804FB20BF40BF20BFF8E7A0
:108F640000E100E07047836800225A609A60C3E918
:108F74000422DA601A6070470B684A6843609342BF
:108F840008BF0023016008BF43607047436843B1D2
:108F94000268916852680B449342436004BF002303
:108FA4004360704710B50D49A1F59472914201D800
:108FB40000200FE08B1ADB1003EBD3735B1002EB82
:108FC400C30452F83330834205D802D204F10802B4
:108FD400ECE7606810BD2146E8E700BFFC540300DD
:108FE40008B5FFF7DFFF024B002808BF184608BD8D
:108FF400C153030029DF704728DF704770B5036849
:109004009D6886B004460E466DB114220021684660
:109014000AF0B3FBA3680593237901962BB1012BC6
:109024000DD06846A84706B070BD01238DF8003006
:1090340023690293E368039363690493F1E70223CA
:109044008DF80030E3681B030293F5E70846704788
:1090540000207047024B187A003018BF0120704777
:10906400B0300020034B187A0122B0FA80F05A7411
:1090740040097047B030002008B510461A460AF07F
:1090840053FB002008BD000008B514220021044849
:109094000AF073FB0348FFF7C2F9002008BD00BFC4
:1090A400B03000206424002010B5094C094B436003
:1090B4002046FFF7BEFA40B909F054FE1C23207481
:1090C4008C2205490548FFF797F9002010BD00BF21
:1090D400B0300020B858030024300020642400205D
:1090E40070B5244C244E237A25463BB923492448A1
:1090F400FFF7F1F9306008B9606070BD346802238D
:109104002B72237973B1012B24D020460321FFF75E
:1091140075FF00232B726B6018491948BDE8704035
:10912400FFF704BAD4E90523D21AB2F5805F28BF49
:109134004FF48052D4E903109208012A38BF012267
:1091440019441844FFF756FF50B11128DDD101230B
:109154002B72D2E7D4E903031844FFF74DFFF3E77A
:109164002B7C002BC9D10146BDE87040022000F0E1
:1091740009B800BFB0300020C8300020C43000203F
:109184006424002038B5831E012B45D8234C237A50
:10919400002B41D0022B09D1032830D0204B1B686F
:1091A4000022E2601A793AB1012A22D0637C7BBBA7
:1091B400BDE83840FFF794BFD3E905128D1AB5F521
:1091C400805F94BF521902F580529A619142EDD1A9
:1091D40002284FF0000308BF19462372104B18BF32
:1091E4000D211868FFF70AFF0E490F48FFF79EF993
:1091F400DCE71A6901321A615B699A42E7E7E368BE
:109204000133082B01D8E360D0E70023E360DFE7F4
:10921400BDE8384009F096BD38BD00BFB03000202D
:10922400C8300020C43000206424002000F0FD0376
:10923400012B08D1044B00225A74421E5042504163
:109244001874FFF74DBF7047B030002010B5064CBE
:10925400201DFFF7EEF928B9637C1BB9BDE8104067
:10926400FFF73EBF10BD00BFB03000202DE9F34131
:1092740080460D460F4801A916461F46FFF7F1F830
:109284000446A8B11C2200210AF077FA2D0B012311
:10929400237101A9C4F80080A760E56066610548F0
:1092A400FFF709F9FFF7D2FF002002B0BDE8F08113
:1092B4000420FAE7642400202DE9F7438146884618
:1092C400104801A917461E46FFF7CBF80446B0B173
:1092D4001C2200210AF051FA00250A9BA36001A96F
:1092E4002571C4F80090C4E9037866610548FFF766
:1092F400E2F8FFF7ABFF284603B0BDE8F083042093
:10930400FAE700BF6424002007B50B46A0B9154B4B
:109314005B886BB1144B1548154AC01A0E23C0085C
:109324000093144B0004144940F00100FEF7FFF8C9
:109334000E2003B05DF804FB6BB90A4B5B88002B6D
:10934400F6D0094B09480D4AC01AC0080E230093F1
:109354000004084BE7E703601B68114603B05DF89F
:1093640004EB18479C230020C0410300584203002B
:109374009F590300F2580300A45903001B5A030029
:109384002DE9F3419646B0B9504B5B88002B00F0B1
:1093940095804F4B4F48504AC01AC0080E244F4B7B
:1093A400009400044E4940F00100FEF7C0F8204646
:1093B40002B0BDE8F0816AB9444B5B88002B7DD0D4
:1093C400434B4448474AC01AC0080E240004009482
:1093D400424BE7E7D0F800C0BCF1000F0DD13B4B86
:1093E4005B88002B6CD03A4B3A483F4AC01AC008FD
:1093F400082400040094394BD4E76BB9334B5B88E1
:10940400002B5FD0324B3348384AC01AC0080924B5
:1094140000040094314BC5E74768D7F80480B3FBD8
:10942400F8F708FB17376FB1284B5B88002B49D03E
:10943400274B28482E4AC01AC00809240004009467
:10944400264BAFE78F070DD0204B5B88002B3BD01A
:109454001F4B2048274AC01AC00810240004009457
:109464001E4B9FE712F0030F0CD0184B5B885BB3C5
:10947400174B1848204AC01AC0081024000400944E
:10948400164B8FE7C768B9420BD34C1E05691C44C1
:10949400AC4206D8DCF80C40A44602B0BDE8F0416A
:1094A40060470A4B5B887BB1094B0A48134AC01AD0
:1094B400C008102400040094084B73E70E2476E7D8
:1094C400082474E7092472E7102470E79C23002021
:1094D400C0410300584203009F590300045903008C
:1094E400A4590300215A0300155A0300D459030058
:1094F400275A0300515A0300695A03008C5A030087
:10950400F7B5A0B9374B5B88002B63D0364B37488F
:10951400374AC01AC0080E24364B0094000436495A
:1095240040F00100FEF703F8204603B0F0BDD0F888
:1095340000C0BCF1000F0DD12A4B5B88002B4BD02F
:10954400294B2A482D4AC01AC00808240004009454
:10955400284BE4E76AB9234B5B88002B3ED0224BAF
:109564002248274AC01AC008092400040094214B49
:10957400D5E74768D7F800E00EF1FF370F420CD06B
:10958400184B5B8863B3184B18481E4AC01AC008AE
:10959400102400040094174BC1E7C768B9420CD3E8
:1095A4004C1E05690EFB0244AC4206D8DCF81040A0
:1095B400A44603B0BDE8F04060470A4B5B887BB12A
:1095C400094B0A48104AC01AC00810240004009429
:1095D400084BA4E70E24A7E70824A5E70924A3E77A
:1095E4001024A1E79C230020C0410300584203003B
:1095F4009F59030017590300A4590300155A030087
:10960400D45903002A5903005059030018B10368C0
:109614000BB15B691847002070470000014B4360A1
:1096240000207047C05A0300084670470020704766
:10963400024B1868003018BF01207047CC3000205E
:1096440008B50248FEF7FEFF002008BDCC3000201C
:1096540008B510461A460AF067F8002008BD000055
:109664002DE9F043814687B014480F4616469846C4
:10967400FEF7DFFF0446F0B90546AE4215D10F48A8
:10968400FEF7E0FFD9F808305BB102228DF8002024
:109694000022CDE90127CDE90326CDF814806846E0
:1096A4009847204607B0BDE8F08307EB053002F089
:1096B40009FF0135E1E71124F3E700BFCC300020B6
:1096C4002DE9F041804686B011480F4616461D46E6
:1096D400FEF7AFFF0446C8B9AA083146384602F07F
:1096E40009FF0B48FEF7AEFFD8F8083053B101224A
:1096F4008DF800200C9A0592CDE90147CDE9036568
:1097040068469847204606B0BDE8F0811124F9E781
:10971400CC30002070B5064D0646002455F8043BB5
:109724000BB1304698470134042CF7D170BD00BF0B
:10973400DC300020033080B240F2FD33984230B573
:109744001FD8124B1A783AB91C895D892C440444F9
:10975400A4B2B4F5806F0AD31A7DA2B99A8BDC8BBC
:109764002244024492B2B2F5806F0CD201220A80E4
:109774001446142202FB04335A89104458810020F1
:1097840030BD0920FCE70720FAE700BF10310020B4
:109794000B4A0C4B5188142000FB0131CB6833B9C0
:1097A40004204968107001220748FFF7A9BE052369
:1097B4000649137002238B80012200230968F3E712
:1097C400F4300020103100203C230020C831002058
:1097D40007B5002305490093054A0968054808238D
:1097E400FFF7CEFD03B05DF804FB00BFC8310020D5
:1097F400F85A03003C23002007B5002300930146D8
:109804000823034A0348FFF7BBFD03B05DF804FBDC
:10981400F05A03003C23002013B500230C460093A8
:1098240001460423074A0848FFF7AAFD38B9074B45
:10983400142202FB04340123237402B010BD0E2051
:10984400FBE700BFEC5A03003C230020103100204A
:1098540037B50A480A4B42689C881968538803251F
:10986400033305709BB2002000909B0001EB840140
:109874000448FFF785FD03B030BD00BFF43000207D
:10988400C83100203C23002010B501460448FEF7EF
:10989400E8FD1C220446002109F06FFF204610BD9C
:1098A4007824002068B10268084B9A4209D14068C4
:1098B400074B984207D0013398420CBF0120032084
:1098C4007047032070470020704700BFDEC0ADDE44
:1098D400FE011EF14388033300EB8303994209D34D
:1098E40082884FF6FF739A4206D00088B0FA80F05F
:1098F4004009704702207047012070472DE9F84362
:109904000223DFF860800B800D46174600F5805671
:1099140000F108044FF00109B4420FD22368013367
:109924000CD031462046FFF7D5FF48B10FB187F878
:10993400009002280BD14FF480632B80BDE8F8839C
:10994400A368D8F80020934201D9C8F800302B88C6
:109954006288033313442B806388033304EB83044A
:10996400DAE700BF08310020154A142303FB002066
:1099740070B50B6844680D4604F58056ABB15C883D
:10998400033403EB8404B4420DD2236801330AD0B8
:1099940031462046FFF79EFF01280BD010F0FF0F41
:1099A40005D00228EFD1002003E00834EBE72C6057
:1099B400012070BD6388033304EB8304E3E700BF35
:1099C40010310020436873B504460D4663B3234A3F
:1099D400D1688B4228D31269934225D813F003002F
:1099E40022D11F4A2189128991421DD121689A6886
:1099F400914219D11B4A51688B4203D901F5805118
:109A04008B420DD3926993420CD902F58052934252
:109A140008D201232B80B0FA80F0400902B070BD57
:109A24000346F7E70A20F6E700232B801E4601963B
:109A340001A92888FFF798FF30B92B8801339BB21E
:109A4400012B2B80F3D9E9E7019B226899689142A5
:109A5400EED16360024B1B892381DFE73C230020A6
:109A6400F4300020103100202DE9F8431C461C4B33
:109A74001B7806460F4615466BB372B36CB3DFF81A
:109A840068804FF01409A388012B01D90A2020E033
:109A940009FB03F318F803302BB92146A088FFF71C
:109AA40063FF20B92060A3880133A380EBE7236818
:109AB4001EB1998832889142EFD11FB119883A8832
:109AC4009142EAD19A68C5E90023064B1B892B8190
:109AD4000020BDE8F8830220FBE70520F9E700BF7A
:109AE400EC300020F43000201031002008B5074B82
:109AF400191D5888FFF738FF18B1BDE80840FFF773
:109B0400A7BEBDE80840FFF743BE00BFF430002005
:109B14002DE9F04FA04FDFF8A49289B00646B8466D
:109B24003B6823B949469D48FEF7D5FC3860D8F810
:109B3400005029784B1E052B00F2FA80DFE813F061
:109B440006005E005E00EE00EE005C0126B1944B60
:109B540000225A600124ECE02B79032B1DD8DFE8A6
:109B640003F015022A358F490B78022B084619D0C9
:109B74000B7D022B4FF0010316D114225343C2185C
:109B84000020C8545068FFF737FE03E001232B710F
:109B9400FFF71EFE002800F0BC80814B00225A60B3
:109BA4000E24C6E00023E8E77D4A137000235360C7
:109BB40041F61D54BDE07C497C48002302222B71F0
:109BC4008A8001220968FFF79BFCE3E7764C0026B4
:109BD4002E712068734DFFF70FFE754BD4F800C04B
:109BE4005A8814235343EA18EE5451682160A1881B
:109BF400C2F804C011810222A280CBE7B5F814A0F8
:109C0400AA7DDFF8A0B1AEB1022AEB8806D91421EF
:109C140001FB0AB1DA1C088902440A81142202FBFE
:109C24000ABAC3F57F43BAF80A20FD331344AAF8ED
:109C34000A308FE7142303FB0AB318895C6804EB2A
:109C44008004062A68D8DFE802F0274D35431D5901
:109C5400040041F61D54AA7DEB88022A06D914217A
:109C640001FB0AB1DA1C088902440A81142202FBAE
:109C74000ABAC3F57F43BAF80A20FD331344AAF89D
:109C84000A3056E04B484C4900234360AB690360FB
:109C9400FFF798FE002871D00223AB7500230093D0
:109CA4000423EA1821464148FFF76AFB002830D014
:109CB4000E24D0E72B69002B14BF03230123AB75BB
:109CC4000023009305F10C02042304F10801EAE7E0
:109CD4000123AB750022EB8800929B002A6904F1F2
:109CE4000C01E0E703290CBF05230623AB75002311
:109CF4000093042305F10802E118D4E70623AB75A9
:109D04002D4B19882B4B5868FFF786FD0446002815
:109D1400A1D109B0BDE8F08F0F249CE7002E7FF499
:109D240019AF2B79012B4BD0E3B1022B3FF440AF99
:109D34000F241422002103A809F01FFD41F61D532E
:109D44009C4208BF0024D8F8003004941A78023AE0
:109D5400042A00F20581DFE812F0E600F2001501A2
:109D64001D01240102232B710DF10A01EB680393F9
:109D740003A8CDE90466FFF725FE08B90A24D8E74D
:109D84000498BDF80A108388EB8003882B81FFF7C1
:109D940043FD044627E000BF0C3100207824002056
:109DA400EC30002010310020C83100203C2300207A
:109DB400F4300020D0300020D031002004310020C5
:109DC400DFF8FCA103AA53463146A81DFFF74CFE59
:109DD400044658B9BAF804100498FFF71DFD044668
:109DE4000A2C3FF4E5AE002CA3D192E708223146B9
:109DF400504609F0C2FCF3E7002E7FF4ABAE6B4B88
:109E04001A7BAAB11E731A78013A062A90D801A1C6
:109E140051F822F0BF9E0200E59E0200039F02005B
:109E2400099F0200359D02000F9F0200219F02003E
:109E34001A78072AE7D801A151F822F0619E02009E
:109E44000B9E02000B9E0200879E02009B9E020056
:109E5400BB9E0200BB9E0200839E02001A895449E5
:109E640001321A8100225A801A730A78B2FA82F2F5
:109E740052099A720A7DB2FA82F25209DA72012206
:109E840007E04C4958688A884088033202448A8033
:109E940002221A70B7E7464C5A884649142505FB36
:109EA40002420868546850608888108102228A80BF
:109EB4000C600622EDE70722EBE79A7A32B9DA7AE8
:109EC4008AB900221A705A805A6071E63849002211
:109ED4009A72CA68002AF2D1097C0029EFD05A800C
:109EE400FFF704FE55E70022DA72314A116A0029AD
:109EF400E7D192F82420002AE3D00122EFE7FFF70C
:109F0400A7FC46E7FFF744FC43E7294A5B88142192
:109F140001FB03235868FFF76FFC3AE700225A60FD
:109F2400FFF756FC35E701228DF80C201A89ADF8AD
:109F340018209A88DB68ADF81A20059310E00222F5
:109F44008DF80C201A89ADF818209A88ADF81A20DB
:109F5400DA689B7D05929A1F534253418DF81C3059
:109F640003A8FFF7D7FB002649461348C8F800604A
:109F7400FEF7DCFA01211148FEF750FB00287FF4BC
:109F8400CFADC6E603228DF80C20DA88ADF8182090
:109F94001A89CFE70422DB888DF80C20ADF818303D
:109FA400DEE705238DF80C30DAE700BFF43000203B
:109FB40010310020C831002078240020C431002052
:109FC400D43100204068FFF7A3BD000008B501218B
:109FD4000448FEF70DFB18B9BDE80840FFF798BD2B
:109FE40008BD00BFC43100202DE9F3419846354B2C
:109FF4001B7806460D46002B5BD000295BD00988F0
:10A004004FF6FF73994258D06B88002B55D06B687C
:10A014009B0754D14AB92F890DF102013846FFF745
:10A0240089FB30B102B0BDE8F08113885788ADF8E0
:10A03400023001A8FFF728FC044658B9BDF80230E5
:10A04400214A142101FB032358890338C01B58817A
:10A054000820E7E700238375BDF8023083826B682C
:10A06400036180F8008001211848FEF7CCFA2B88A0
:10A074002381B8F1030F6B88A38004BF0423A37565
:10A084004FF0000508BF3368E06008BFA361E780B4
:10A09400658101A90E48FEF70EFA36B1E368336014
:10A0A4000C4B75601B89B5723381FFF78FFF00205D
:10A0B400B8E70220B6E70520B4E70420B2E703209E
:10A0C400B0E700BFEC300020103100200831002040
:10A0D40078240020F43000202DE9F04F14228BB0B6
:10A0E40000210DEB020009F048FB764A137803F0D7
:10A0F400FF01CDE901123BB105A8FFF70BFB0027D7
:10A1040038460BB0BDE8F08F029B181DFEF791FA9C
:10A114000028F4D140F6F8734FF080521B685C1CA1
:10A1240008BF694B694C08BF1B6811695269581C08
:10A1340008BF02FB01F323610022A3F540536449E5
:10A14400E3602046FFF7E0F8039407460028D7D1E0
:10A154001C238C225F496048DFF88891DFF88881EE
:10A16400FEF74AF9BA463D464FF0030B3C46039BC3
:10A17400DE68564430463146FFF794FB01284DD043
:10A1840042B2002A36D0032822D106F5805208684C
:10A19400013040F08A8004319142F8D1D9F800208E
:10A1A4003AB902220123C9F80060A9F804200193F6
:10A1B4000CE014226243022008EB020108F80200BA
:10A1C400464A4E60548001340881A4B245F001052A
:10A1D4000AF5805ABAF5405FC9D1BBF1010F98BFA7
:10A1E4000025EDB2022D03D0062D35D0002D3CD133
:10A1F4000B2785E71421614308EB010008F80120CF
:10A2040001F1100208314660424441443046FFF7F0
:10A2140075FB45F002050134A4B2D9E7019B63B193
:10A224001422624308EB0201022008F80200013400
:10A23400D9F800204A600881A4B200222849C9F84C
:10A2440000603046FFF75AFBB9F80420022A0CBF1D
:10A25400042208221543BBE7029A0123137005A8C0
:10A2640000235360FFF756FA4AE704A8FFF70CFBF4
:10A27400C8B10123013D03700A2D09D8DFE805F0B8
:10A2840006080608070807080F110F0000230371CA
:10A2940004A91148FEF70FF9FFF798FE30E70323EE
:10A2A400F5E70223F3E708272AE70BF1FF321FFA49
:10A2B40082FB1422624308EB02014E60032108F87A
:10A2C4000210A8E7EC300020141000103C230020FA
:10A2D400C45803003831002078240020F4300020D2
:10A2E400CC310020C83100201031002073B50D4658
:10A2F4000446C8B1C1B10DF10601FFF763FBA8B173
:10A304000B4BBDF806006668142202FB00300121E5
:10A314000C30FEF778F963682E600C336B60012310
:10A32400A372002002B070BD0520FBE70A20F9E704
:10A334001031002013B50446A8B10DF10601FFF752
:10A3440041FB90B10B4ABDF80630142101FB0323F5
:10A35400DA6862B1A27A52B1DA680020013ADA60AE
:10A36400A07202B010BD0520FBE70A20F9E7062021
:10A37400F7E700BF1031002002230022FFF734BEAC
:10A3840018B103230022FFF72FBE0520704707B53D
:10A39400ADF80600ADF804100DF1060001A9FFF7B1
:10A3A40063FB03B05DF804FB054B1B68082B01BF7E
:10A3B400044B1868B0FA80F0400918BF00207047B9
:10A3C400300100103401001008B54FF08043002222
:10A3D400C3F80C21C3F81021C3F838254FF080527C
:10A3E40003F54043D2F80414C3F82015D2F8081436
:10A3F400C3F82415D2F80C14C3F82815D2F8101495
:10A40400C3F82C15D2F81414C3F83015D2F8181464
:10A41400C3F83415D2F81C14C3F84015D2F820142C
:10A42400C3F84415D2F82414C3F84815D2F82814F4
:10A43400C3F84C15D2F82C14C3F85015D2F83014C4
:10A44400C3F85415D2F83414C3F86015D2F838148C
:10A45400C3F86415D2F83C14C3F86815D2F8401454
:10A46400C3F86C15D2F84424C3F87025FFF79CFF99
:10A4740010B1384B384A1A60FFF796FF18B1374BC2
:10A48400FB22C3F81825FFF78FFF48B13449354B39
:10A494000A681B6822F00F0203F00F0313430B60DA
:10A4A400FFF782FF18B1304B4FF400721A604FF07F
:10A4B4008043D3F80024D20744BF6FF00102C3F8ED
:10A4C40000242A4AD2F8883043F47003C2F8883052
:10A4D400BFF34F8FBFF36F8F4FF01023D3F80022D9
:10A4E400002A03DBD3F80432002B2FDA204B01229D
:10A4F400C3F80425D3F80024002AFBD04FF010221F
:10A504001221C2F80012D3F80024002AFBD04FF025
:10A5140010231222C3F80422154B1A46D3F8001450
:10A524000029FBD00021C3F80415D2F80034002B15
:10A53400FBD0BFF34F8F0D490E4BCA6802F4E062A3
:10A544001343CB60BFF34F8F00BFFDE70A4B0B4AA9
:10A554001A6008BD8C5600404881030000F000409A
:10A56400E40E0040580200104096024000ED00E066
:10A5740000E001400400FA058C2400200090D00380
:10A58400074B1B5C1F2B86BF03F01F0305494FF0CD
:10A59400A041012202FA03F3C1F80C35704700BF51
:10A5A4000F5B030000030050074B1B5C1F2B86BF8F
:10A5B40003F01F0305494FF0A041012202FA03F3FF
:10A5C400C1F80835704700BF0F5B0300000300505B
:10A5D40008B50020FFF7E8FF0120FFF7E5FF0220A0
:10A5E400FFF7E2FF0320BDE80840FFF7DDBF0000EE
:10A5F400C10710B5044642D54FF08043D3F8403626
:10A60400DA072ED54FF01023D3F8043303F00703F1
:10A61400072B26D11D4B0122C3F80425D3F80024AF
:10A62400002AFBD04FF01021D1F8042322F00702B6
:10A6340042F00402C1F804230022C3F80425134A9B
:10A64400D2F80034002BFBD0BFF34F8F1049114BCD
:10A65400CA6802F4E0621343CB60BFF34F8F00BFBC
:10A66400FDE74FF0A0420C490323C2F81837C2F8A3
:10A674002037C1F82437C2F83037FFF7A9FFA30702
:10A6840042BF054B0C22C3F8182710BD00E001405F
:10A6940000ED00E00400FA050003005042DF7047BB
:10A6A40043DF704738B5074C051E04F1080318BF93
:10A6B4001C4623682BB11A6822605B6828469847B9
:10A6C400F7E738BDE431002020B9054B01225A7068
:10A6D400FFF7E8BF012802D1014A9070F8E77047FC
:10A6E400DC31002020B9034B01225A70FFF7DABF96
:10A6F400704700BFDC31002038B50B4C237883B998
:10A704000A486360A3602361E36000F0B9F9054679
:10A7140008F028FB08B900F0BFF90123237028468C
:10A7240038BD8525FBE700BFDC310020CDA6020043
:10A7340037B5184CA378054603F0FF029BB110B15E
:10A7440043680120984700230DF107008DF8073076
:10A75400FDF718FEE3689DF807000133E360FDF799
:10A7640035FE03B030BD0DF107008DF80720FDF76D
:10A7740009FE25B1226913463BB92A602561E368C5
:10A78400002BE7D100F09EF9E4E79D42F7D01B6867
:10A79400F2E700BFDC31002037B50B4C00230DF18C
:10A7A40007008DF80730FDF7EDFDE368013BE3603A
:10A7B400E56815B900F098F9A5709DF80700FDF754
:10A7C40005FE03B030BD00BFDC310020012813B505
:10A7D40009D018B103281CD002B010BD0F4B0122C0
:10A7E400C3F88020F8E70E4C00230DF107008DF824
:10A7F4000730FDF7C7FD23780BB9FFF77DFFE3684A
:10A804009DF807000133E3600123A370FDF7DEFD2B
:10A81400E2E700F041F9FFF7BFFFDDE700E100E008
:10A82400DC31002037B51B4C6378054603F0FF028A
:10A834009BB110B143680020984700230DF1070035
:10A844008DF80730FDF79EFD63689DF8070001331E
:10A854006360FDF7BBFD03B030BD0DF107008DF85B
:10A864000720FDF78FFD25B1A268134653B92A606E
:10A87400A5606368002BE7D108F074FA30B1FFF7E4
:10A884000DFFE1E79D42F4D01B68EFE700F038F9D3
:10A89400DAE700BFDC31002073B50F4C00230DF163
:10A8A40007008DF80730FDF76DFD6368013B6360B9
:10A8B400666836B908F056FA054640B1FFF7F0FE6F
:10A8C40066709DF80700FDF781FD02B070BD00F0D1
:10A8D40029F96570F5E700BFDC31002036DF7047E9
:10A8E4004DDF70474EDF70474FDF704750DF7047D2
:10A8F40010B50446FFF7F6FF40B92046FFF7F0FF16
:10A9040020B92046BDE81040FFF7EEBF10BD012876
:10A9140010B5044602D100F0ADFB804700F0B0FB57
:10A92400034668B10A2C07D00B2C07D0092C07D199
:10A934000220BDE8104018470020FAE70120F8E79C
:10A9440010BD0000012813B5044603D003281AD013
:10A9540002B010BD00230DF107008DF80730FDF79C
:10A9640011FD00F087FB10B12046FFF7B7FF9DF8FB
:10A974000700FDF72BFD00F083FB0028E8D0012041
:10A98400FFF7B6FFE4E70C4BC02283F80023012253
:10A994001A6000F06FFB20B14FF080430422C3F82B
:10A9A400042300F06DFB0028D2D04FF080434FF415
:10A9B4006072C3F80423CBE700E100E038B50A4C29
:10A9C4002378054663B908F0CDF958B90748002D36
:10A9D40018BF284600F05AFB08B90123237038BD7C
:10A9E4008520FCE70820FAE7F0310020195B03001A
:10A9F40013B500240DF107008DF80740FDF7C2FCE4
:10AA040008F0B0F950B12046FFF772FF9DF8070037
:10AA1400FDF7DCFC00F070FB02B010BD00F065FB3C
:10AA2400F4E713B50446FFF7E3FF204600F050FBBC
:10AA340008F098F90446A0B10120FFF759FF044635
:10AA440060B901A8FFF752FF044638B9019BDB0740
:10AA540004D500F015FB034620469847204602B073
:10AA640010BD00F03BFBF9E750E8002F02EA0103B8
:10AA740040E8003C9CF0000FF6D1104670470000FF
:10AA8400044A137923B90121106091801846704754
:10AA940085207047F4310020084B1A68D2075FBF45
:10AAA400C02283F8002301221A604FF08042012360
:10AAB400C2F81835024A1370704700BF00E100E085
:10AAC400FC310020074B00221A6082B01B680193FE
:10AAD400019B4FF080430222C3F8042301229A60B1
:10AAE40002B0704704010040044B01221A604FF089
:10AAF4008042D2F81834DB03FBD470470C000040CA
:10AB0400074B00221A6082B01B680193019B4FF02F
:10AB140080430122C3F804231A6002B0704700BFC7
:10AB240000010040074B01221A604FF08042D2F826
:10AB34000C3403F00113B3F1011FF8D0024B0022CF
:10AB44005A71704704000040F4310020154B07B5DA
:10AB54001A687AB100221A601B680093009B4FF0B8
:10AB640080430122C3F808230F4B587910B95A7156
:10AB74001B6898470D4B1A6882B100221A601B6843
:10AB84000193019B4FF080430222C3F80823064B34
:10AB94001B68012003B05DF804EB184703B05DF8AF
:10ABA40004FB00BF00010040F43100200401004018
:10ABB40000F1804000F5C040002382B003600368C8
:10ABC4000193019B02B0704703681F2B83BF03F0FE
:10ABD4001F03036001484FF0A0407047000300507A
:10ABE40007B5019001A8FFF7EFFF019B00EB83007D
:10ABF400D0F8002722F44032C0F80027D0F80037FC
:10AC040043EA0143C0F8003703B05DF804FB0000D9
:10AC1400054B4FF0FF32072843F8202084BF1B1850
:10AC240083F85820704700BF0032002010B5174C3D
:10AC340094F86A3043BB04F130033021FF22013918
:10AC440011F0FF0103F8012BF9D1C8B2FFF7E0FFBF
:10AC540001310C29F9D1062200210D4808F08DFD9F
:10AC64000C4BC02283F8062340221A604FF4BE70B6
:10AC7400FFF79EFF084B4FF00042C3F80423012363
:10AC840084F86A30002010BD0820FCE70032002060
:10AC94006432002000E100E000600040034B93F8C0
:10ACA4006A00003018BF0120704700BF0032002046
:10ACB400F7B53B4E3318054693F93030002B6CDA68
:10ACC4008B78C3F34003002B0BBF082400240C2013
:10ACD4000820844202D1042003B0F0BD56F8247049
:10ACE400013743D1701946F8242080F8304013B955
:10ACF400331983F858508B785A0717D4D80737D5A7
:10AD040001A80195FFF760FF019B00EB8300D0F8D9
:10AD1400003723F00203C0F800372248EA0805F0A0
:10AD240007070123BB40875C3B43835488780A7838
:10AD340010F0020028D0A40004F1804404F5C044BB
:10AD44002D02D4F8103523F44F3323F44073C4F8A0
:10AD540010351204D4F8103505F47C5502F4403251
:10AD640015431D43C4F810550020B5E70134B0E77E
:10AD740001A84A780195FFF727FF019B03F5E073CB
:10AD8400920040F82320C8E7083C344494F860500B
:10AD940045EA821284F860209EE708209CE700BF01
:10ADA400003200206432002073B5224C2518064678
:10ADB40095F93020072A19DD224492F858309B096E
:10ADC400032B0FD1019001A8FFF7FEFE019AD0F8E2
:10ADD4001035D340DB0707D402213046FFF700FFCC
:10ADE40002B070BD012BF7D00321F6E7D3B2072BD5
:10ADF400F6D8930003F1804303F5C043D3F810055C
:10AE040040F00100C3F8100502F14000800080B258
:10AE1400FFF7CEFE0029E3D095F9303054F8233003
:10AE2400002BDDD0012303FA02F2034BC3F8042301
:10AE3400D6E700BF00320020006000400E4B034400
:10AE440093F93020072A02DD0021FFF7C9BED3B2EF
:10AE5400072B10D8930003F1804303F5C043D3F8C4
:10AE6400101521F00101C3F81015012303FA02F2B1
:10AE7400024BC3F8082370470032002000600040F2
:10AE840007B5019001A8FFF79FFE019BD0F81005BC
:10AE9400D84000F0010003B05DF804FB2DE9F04F49
:10AEA400002489B0CDE90244624D4FF4807201213F
:10AEB40002F1804303F5C04390B21B68012B06D115
:10AEC400D5F804330B4202D0FFF772FE0C43043270
:10AED400B2F5907F4FEA4101EAD1574B1B68012B31
:10AEE4000ED14FF4BE70FFF763FE4FF0A04344F061
:10AEF4000044D3F810350293504BD3F81035039324
:10AF040014F0FF0F1AD04E4F00250126344210D002
:10AF1400AB0003F1804303F5C043D3F81005D3F825
:10AF2400101557F8253023B1C1F30141C0F30520B2
:10AF340098470135082D4FEA4606E7D1002C75DA0B
:10AF44000DF1100800230493C8F804304FF0FF33C8
:10AF5400CDE90633DFF8E8A0DFF8E89000273D46A6
:10AF640019F9014B631C48D0E4B2012324F0C00654
:10AF740004F0070203FA02F2F00808AB191811F8FA
:10AF8400083C134239D00AEB0603A40993F9303084
:10AF94005AF823B0BBF1000F08D1032C2DD118F8B7
:10AFA40000C04CEA020C08F800C001E0032CF6D003
:10AFB40001A80196FFF708FE019B11F8181C03F580
:10AFC400E07C114250F82C00C0F3014005D0022867
:10AFD40013D1032C0BD1214604E003280DD1032CFB
:10AFE40005D102213046FFF7FBFD0135EDB2BBF17F
:10AFF400000F02D021463046D8470137042FAFD185
:10B00400A5B14FF0A0430299D3F8102503F540737E
:10B014009142D3F8103502D10399994206D0029295
:10B024000393049A059B0692079395E709B0BDE83C
:10B03400F08F00BF006000407C61004000030050BE
:10B044000032002060320020014B1B68184700BF0B
:10B054006C32002000F1804382B01A68002A14BFC9
:10B064000120002004D000221A601B680193019B78
:10B0740002B07047014B1868704700BF743200205B
:10B08400014B1868704700BF7C3200200E4B1A78C1
:10B09400C2B902784FF08041C2F34002C1F8802562
:10B0A400027802F00102C1F87825084A1168C9073C
:10B0B4005FBFC02182F800130121116001221A70C0
:10B0C40000207047852070478032002000E100E0B6
:10B0D400014B02681A6070477C3200204FF08043B5
:10B0E4004FF46072C3F8042370474FF080434FF469
:10B0F4006072C3F808237047014B00221A6070473E
:10B104007C3200204FF0804310B5D3F8044362072B
:10B1140007D54FF48470FFF79DFF10B11E4B1B68D9
:10B124009847A30608D54FF48A70FFF793FF18B128
:10B134001A4B00201B689847600608D54FF48C70A2
:10B14400FFF788FF18B1154B01201B6898472106AB
:10B1540008D54FF48E70FFF77DFF18B1104B002017
:10B164001B689847E20508D54FF49070FFF772FF0B
:10B1740018B10B4B01201B689847A3050AD54FF45F
:10B184009270FFF767FF28B1054B02201B68BDE8EA
:10B194001040184710BD00BF7432002078320020E0
:10B1A4007C32002008B5FFF7ADFFBDE80840FFF78B
:10B1B400CDBC0000044A91689368CB1A23F07F4306
:10B1C4008342F9D3704700BF10E000E0034B044A08
:10B1D4001B68B3FBF2F35843FFF7ECBF8C24002049
:10B1E40040420F0000F1804000F51C300123036051
:10B1F400BFF36F8FBFF34F8F70470000064A10F004
:10B20400800F00F00F0314BFD2F81005D2F8140514
:10B21400D84000F00100704700700240054B1B68E5
:10B22400082B05D1044B1868003018BF0120704763
:10B2340000207047300100103401001030B54C6814
:10B244000D68A34297BFC0E900530021E41AED182A
:10B254008EBFC0E900514C600D60934203D1201CA5
:10B2640018BF012030BD0020FCE74B6810B59A429E
:10B274000C6828BF1A46C0E90042981A0B68486057
:10B28400134400300B6018BF012010BD30B54C686A
:10B294000B68A24228BF2246002A14BF1D4600257F
:10B2A400A4EB02041344C0E900524C600B6014BFC9
:10B2B4000120002030BD0000054B10F0800FA3F1E9
:10B2C400900208BF134600F00F0003EB0010704714
:10B2D400F433002010F0800F14BF0023102300F07B
:10B2E4000F00184470470000024A00231360024A0A
:10B2F400137070471C7C02408232002007B5084A54
:10B3040000231370074A0193137001238DF804304E
:10B31400054B01A81B68984703B05DF804FB00BF08
:10B3240081320020883400208434002070470000DB
:10B33400F8B54D680B4F954228BF15460C46064696
:10B344002A460968384608F0EFF960682368401B0C
:10B35400C6E9007560601D440030256018BF0120F7
:10B36400F8BD00BF90340020F8B54C68944228BF63
:10B37400144606460D468CB1094F096822463846E4
:10B3840008F0D2F937606B6874601B1B6B602B6824
:10B39400201C23442B6018BF0120F8BD0460F2E791
:10B3A4009034002008B5FFF79FFF084B93F89E20C8
:10B3B400032A06D16FF001010548BDE80840FFF7F4
:10B3C40053BBD3F89030002BF4D008BD6433002075
:10B3D400F032002007B500238DF804300B4BD3F86E
:10B3E4002025ADF80620D3F8C034094A002B136891
:10B3F4000CBF4FF480714FF001210B431360054BD8
:10B4040001A81B68984703B05DF804FB0070024074
:10B41400603300208434002013B5124C01222368C9
:10B4240002FA01F10B4323600F4B1B68194003061A
:10B434000DD551B906238DF804308DF806008DF82A
:10B4440007100A4B01A81B68984702B010BD0029D9
:10B45400FBD106238DF804308DF806008DF8072003
:10B46400EFE700BF60330020F03200208434002076
:10B4740008B5054B1A781046FFF72CFFBDE80840C5
:10B4840001461046FFF7C8BF8834002008B50146BE
:10B49400FFF72AFFFFF710FF837B032B0AD108462F
:10B4A400FFF718FF01218140C9430448BDE8084063
:10B4B400FFF7DABA0368002BF1D008BDF0320020A0
:10B4C4008720FFF7E3BF8620FFF7E0BF8520FFF763
:10B4D400DDBF8420FFF7DABF8320FFF7D7BF8220C8
:10B4E400FFF7D4BF8120FFF7D1BF000007B5FFF7F6
:10B4F400FBFE104B93F81E21032A07D16FF48071D1
:10B504000D48FFF7B1FA03B05DF804FBD3F810312E
:10B51400002BF8D16FF480710748FFF7A5FA0623D2
:10B524008DF804308823ADF80630044B01A81B685D
:10B534009847E8E764330020F03200208434002088
:10B5440007B5FFF7D1FE0D4B93F88E20032A11D0D7
:10B55400D3F8803073B96FF080710948FFF784FA2B
:10B5640006238DF804300823ADF80630054B01A8F6
:10B574001B68984703B05DF804FB00BF64330020E8
:10B58400F032002084340020204B13B5D3F800445B
:10B59400C3F80044BFF36F8FBFF34F8FBFF36F8FB8
:10B5A400BFF34F8FE1050BD5194B01221A7000230D
:10B5B400019302238DF80430164B01A81B689847A9
:10B5C400A2050AD5124A00230193137003238DF8B0
:10B5D4000430104B01A81B689847630513D50C4B26
:10B5E4001A7882B100221A70084B0121C3F8081599
:10B5F4005820FFF7F7FD042301928DF80430054B22
:10B6040001A81B68984702B010BD00BF007002403B
:10B6140081320020843400202DE9F04F764B87B02E
:10B624001A780193002A7ED1DFF8F0A1DFF8CCB1BB
:10B63400724BDAF800101D68294074D011F001250E
:10B6440074D095FAA5F5B5FA85F50F2D86BFA5F149
:10B654001004E4B245F080042046FFF72DFE4FFAB3
:10B6640084F904F00803B9F1000F064600938289B7
:10B6740061DAD0E9003104A8984700B93060604B22
:10B6840082221A60019B059A049801211970A9402D
:10B69400B368DBF80050134425EA0101B9F1000F47
:10B6A400CBF80010B36004F00F040099554B7CDA1A
:10B6B400002972D0C3F8A006C3F8A426FFF7AEFD94
:10B6C400A30024B26500504A504900287DD1B9F145
:10B6D400000FB2BF042428240A464D4E4D4F02EBFE
:10B6E40005091C4405463560BFF36F8FBFF34F8FC8
:10B6F4002046FFF777FD0220FFF768FD3368002B33
:10B70400F1D01E20FFF762FD3B689B065BD501204C
:10B71400FFF75CFDB9F8003003F1804303F51C33F7
:10B724001B68002BDFD007B0BDE8F08F91FAA1F1C0
:10B73400B1FA81F589E7009B32493BB3D1F8C08463
:10B7440018F4803F18BF4FF000084346716837680B
:10B7540004A8B847049B002B8FD0059B43458CD28B
:10B7640001214FF00208A94086F80E80C9435046D3
:10B77400FFF77AF906238DF80C30274B8DF80E402D
:10B784008DF80F801B6803A8984751E704F00F0356
:10B7940003F5947351F82380D7E7142101FB043394
:10B7A400C3F80006C3F8042688E721B1C3F8A0074C
:10B7B400C3F8A42782E7142101FB0433C3F800076C
:10B7C400C3F804277AE702209CE7B9F1000FB4BF5D
:10B7D400042028201844FFF705FD12EA290938BF80
:10B7E400894639F8143003F1804303F51C331A6891
:10B7F400002AFCD097E700BF82320020603300208B
:10B804001C7C024000700240405B03005C5B030050
:10B81400047102407474024084340020F032002029
:10B8240038B5174BD3F86C44C3F86C44BFF36F8F2F
:10B83400BFF34F8FFFF7F2FC38B9124A136823F0B5
:10B84400011103F001130C43136001251CB9BDE879
:10B854003840FFF7E1BE94FAA4F3B3FA83F30F2B55
:10B86400D9B2C8BFA1F1100005FA03F3CCBFC0B22E
:10B8740041F0800024EA0304FFF7CEFDE6E700BFB1
:10B88400007002408C34002037B50446FFF72CFDCD
:10B89400FFF712FD837B032B0CD12046FFF71AFD23
:10B8A40001218140C9430F48FFF7DEF8FFF7B4FEDA
:10B8B40003B030BD0568002DF8D12046FFF70AFD1E
:10B8C40001218140C9430748FFF7CEF806238DF8CC
:10B8D4000430054B8DF806408DF807501B6801A80D
:10B8E4009847E3E7F0320020843400200720FFF774
:10B8F400CBBF0620FFF7C8BF0520FFF7C5BF042054
:10B90400FFF7C2BF0320FFF7BFBF0220FFF7BCBF92
:10B914000120FFF7B9BF0000024A00231360024A66
:10B924001370704784340020833200204E4B4FF450
:10B93400006273B5C3F80024BFF36F8FBFF34F8F5A
:10B94400FFF76CFC494CA0B100230DF107008DF802
:10B954000730FCF717FD2168454B032200297BD1F2
:10B9640049F2753121601A6021609DF80700FCF7E7
:10B974002DFD00230DF107008DF80730FCF702FDC3
:10B9840022683C4DC023002A68D149F275322260F6
:10B994002B6022609DF80700FCF718FD324B012252
:10B9A400C3F80025BFF36F8FBFF34F8FD3F8002484
:10B9B4001205FBD54FF40062C3F80024BFF36F8F68
:10B9C400BFF34F8F00260DF107008DF80760FCF7D9
:10B9D400D9FC2268002A43D149F2753323602A60D6
:10B9E40023609DF80700FCF7F1FC234B40F2E3725F
:10B9F4001A60043340221A60BFF36F8FBFF34F8F76
:10BA0400A3F6040300258022C3F81C25C3F830558F
:10BA14001A4B40F2FF121A60194B1D60FFF764FCC9
:10BA2400184B1D70184B02221A70FFF7F7FB88B1F0
:10BA34000DF107008DF80750FCF7A4FC21680C4BAE
:10BA440081B949F275322260196022609DF80700BD
:10BA5400FCF7BCFC02B070BD1A6086E72B6099E766
:10BA64002E60BEE71D60F1E70070024000EC064066
:10BA740014ED064014EC06400078024060330020C8
:10BA8400F0320020883400208332002008B50F4BA8
:10BA940000221A70C0B9FFF7C1FB0D4B0D4A0028F4
:10BAA4000CBF184610460C4B0C4AC3F80403C021C3
:10BAB40082F82713802151600122C3F80425BFF3C3
:10BAC4006F8FBFF34F8F08BD0148ECE78132002030
